{
  "_format": "hh-sol-artifact-1",
  "contractName": "AceDomainsAirdrop",
  "sourceName": "contracts/fusionist/AceDomainsAirdrop.sol",
  "abi": [
    {
      "inputs": [],
      "stateMutability": "nonpayable",
      "type": "constructor"
    },
    {
      "anonymous": false,
      "inputs": [
        {
          "indexed": true,
          "internalType": "address",
          "name": "previousOwner",
          "type": "address"
        },
        {
          "indexed": true,
          "internalType": "address",
          "name": "newOwner",
          "type": "address"
        }
      ],
      "name": "OwnershipTransferred",
      "type": "event"
    },
    {
      "anonymous": false,
      "inputs": [
        {
          "indexed": false,
          "internalType": "address",
          "name": "user",
          "type": "address"
        },
        {
          "indexed": false,
          "internalType": "uint256",
          "name": "id",
          "type": "uint256"
        },
        {
          "indexed": false,
          "internalType": "string",
          "name": "name",
          "type": "string"
        },
        {
          "indexed": false,
          "internalType": "uint256",
          "name": "random",
          "type": "uint256"
        },
        {
          "indexed": false,
          "internalType": "uint256",
          "name": "successRate",
          "type": "uint256"
        },
        {
          "indexed": false,
          "internalType": "uint256",
          "name": "epoch",
          "type": "uint256"
        },
        {
          "indexed": false,
          "internalType": "uint256",
          "name": "withdrawAmount",
          "type": "uint256"
        }
      ],
      "name": "airdropClaim",
      "type": "event"
    },
    {
      "inputs": [],
      "name": "baseRegistrar",
      "outputs": [
        {
          "internalType": "address",
          "name": "",
          "type": "address"
        }
      ],
      "stateMutability": "view",
      "type": "function"
    },
    {
      "inputs": [],
      "name": "calculateEpoch",
      "outputs": [
        {
          "internalType": "uint256",
          "name": "",
          "type": "uint256"
        }
      ],
      "stateMutability": "view",
      "type": "function"
    },
    {
      "inputs": [
        {
          "internalType": "uint256",
          "name": "id",
          "type": "uint256"
        },
        {
          "internalType": "string",
          "name": "name",
          "type": "string"
        }
      ],
      "name": "claim",
      "outputs": [],
      "stateMutability": "nonpayable",
      "type": "function"
    },
    {
      "inputs": [
        {
          "internalType": "uint256[]",
          "name": "idArray",
          "type": "uint256[]"
        },
        {
          "internalType": "string[]",
          "name": "nameArray",
          "type": "string[]"
        }
      ],
      "name": "claimAll",
      "outputs": [],
      "stateMutability": "nonpayable",
      "type": "function"
    },
    {
      "inputs": [
        {
          "internalType": "uint256",
          "name": "",
          "type": "uint256"
        },
        {
          "internalType": "uint256",
          "name": "",
          "type": "uint256"
        }
      ],
      "name": "claimHistory",
      "outputs": [
        {
          "internalType": "bool",
          "name": "",
          "type": "bool"
        }
      ],
      "stateMutability": "view",
      "type": "function"
    },
    {
      "inputs": [
        {
          "internalType": "uint256",
          "name": "",
          "type": "uint256"
        },
        {
          "internalType": "uint256",
          "name": "",
          "type": "uint256"
        }
      ],
      "name": "claimSuccess",
      "outputs": [
        {
          "internalType": "bool",
          "name": "",
          "type": "bool"
        }
      ],
      "stateMutability": "view",
      "type": "function"
    },
    {
      "inputs": [],
      "name": "emergencyWithdraw",
      "outputs": [],
      "stateMutability": "nonpayable",
      "type": "function"
    },
    {
      "inputs": [],
      "name": "getCurrentPoolBalance",
      "outputs": [
        {
          "internalType": "uint256",
          "name": "",
          "type": "uint256"
        }
      ],
      "stateMutability": "view",
      "type": "function"
    },
    {
      "inputs": [
        {
          "internalType": "uint256",
          "name": "epoch",
          "type": "uint256"
        }
      ],
      "name": "getPoolBalance",
      "outputs": [
        {
          "internalType": "uint256",
          "name": "",
          "type": "uint256"
        }
      ],
      "stateMutability": "view",
      "type": "function"
    },
    {
      "inputs": [
        {
          "internalType": "uint256",
          "name": "nameLength",
          "type": "uint256"
        }
      ],
      "name": "getSuccessRate",
      "outputs": [
        {
          "internalType": "uint256",
          "name": "",
          "type": "uint256"
        }
      ],
      "stateMutability": "view",
      "type": "function"
    },
    {
      "inputs": [],
      "name": "monthlyEpoch",
      "outputs": [
        {
          "internalType": "uint256",
          "name": "",
          "type": "uint256"
        }
      ],
      "stateMutability": "view",
      "type": "function"
    },
    {
      "inputs": [],
      "name": "monthlyTimeStart",
      "outputs": [
        {
          "internalType": "uint256",
          "name": "",
          "type": "uint256"
        }
      ],
      "stateMutability": "view",
      "type": "function"
    },
    {
      "inputs": [],
      "name": "owner",
      "outputs": [
        {
          "internalType": "address",
          "name": "",
          "type": "address"
        }
      ],
      "stateMutability": "view",
      "type": "function"
    },
    {
      "inputs": [],
      "name": "renounceOwnership",
      "outputs": [],
      "stateMutability": "nonpayable",
      "type": "function"
    },
    {
      "inputs": [
        {
          "internalType": "uint256",
          "name": "",
          "type": "uint256"
        }
      ],
      "name": "rewardsAmount",
      "outputs": [
        {
          "internalType": "uint256",
          "name": "",
          "type": "uint256"
        }
      ],
      "stateMutability": "view",
      "type": "function"
    },
    {
      "inputs": [
        {
          "internalType": "uint256",
          "name": "",
          "type": "uint256"
        }
      ],
      "name": "rewardsPool",
      "outputs": [
        {
          "internalType": "uint256",
          "name": "",
          "type": "uint256"
        }
      ],
      "stateMutability": "view",
      "type": "function"
    },
    {
      "inputs": [],
      "name": "secureWallet",
      "outputs": [
        {
          "internalType": "address",
          "name": "",
          "type": "address"
        }
      ],
      "stateMutability": "view",
      "type": "function"
    },
    {
      "inputs": [
        {
          "internalType": "uint256",
          "name": "timestamp",
          "type": "uint256"
        }
      ],
      "name": "setMonthlyStartTime",
      "outputs": [],
      "stateMutability": "nonpayable",
      "type": "function"
    },
    {
      "inputs": [
        {
          "internalType": "uint256",
          "name": "timestamp",
          "type": "uint256"
        }
      ],
      "name": "setWeeklyStartTime",
      "outputs": [],
      "stateMutability": "nonpayable",
      "type": "function"
    },
    {
      "inputs": [
        {
          "internalType": "uint256",
          "name": "",
          "type": "uint256"
        }
      ],
      "name": "successRate2Chars",
      "outputs": [
        {
          "internalType": "uint256",
          "name": "",
          "type": "uint256"
        }
      ],
      "stateMutability": "view",
      "type": "function"
    },
    {
      "inputs": [
        {
          "internalType": "uint256",
          "name": "",
          "type": "uint256"
        }
      ],
      "name": "successRate3Chars",
      "outputs": [
        {
          "internalType": "uint256",
          "name": "",
          "type": "uint256"
        }
      ],
      "stateMutability": "view",
      "type": "function"
    },
    {
      "inputs": [
        {
          "internalType": "uint256",
          "name": "",
          "type": "uint256"
        }
      ],
      "name": "successRate4Chars",
      "outputs": [
        {
          "internalType": "uint256",
          "name": "",
          "type": "uint256"
        }
      ],
      "stateMutability": "view",
      "type": "function"
    },
    {
      "inputs": [
        {
          "internalType": "uint256",
          "name": "",
          "type": "uint256"
        }
      ],
      "name": "successRate5Chars",
      "outputs": [
        {
          "internalType": "uint256",
          "name": "",
          "type": "uint256"
        }
      ],
      "stateMutability": "view",
      "type": "function"
    },
    {
      "inputs": [
        {
          "internalType": "uint256",
          "name": "",
          "type": "uint256"
        }
      ],
      "name": "successRate8Chars",
      "outputs": [
        {
          "internalType": "uint256",
          "name": "",
          "type": "uint256"
        }
      ],
      "stateMutability": "view",
      "type": "function"
    },
    {
      "inputs": [
        {
          "internalType": "address",
          "name": "newOwner",
          "type": "address"
        }
      ],
      "name": "transferOwnership",
      "outputs": [],
      "stateMutability": "nonpayable",
      "type": "function"
    },
    {
      "inputs": [],
      "name": "weeklyEpoch",
      "outputs": [
        {
          "internalType": "uint256",
          "name": "",
          "type": "uint256"
        }
      ],
      "stateMutability": "view",
      "type": "function"
    },
    {
      "inputs": [],
      "name": "weeklyTimeStart",
      "outputs": [
        {
          "internalType": "uint256",
          "name": "",
          "type": "uint256"
        }
      ],
      "stateMutability": "view",
      "type": "function"
    },
    {
      "stateMutability": "payable",
      "type": "receive"
    }
  ],
  "bytecode": "0x6364b1e1806001556364d6cb80600255610380604052612d3b608090815261262060a081905260c081905260e0819052610100819052610120526125116101408190526101608190526101808190526101a08190526101c08190526101e08190526102008190526102208190526102408190526102608190526102808190526102a08190526102c08190526102e081905261030081905261032081905261034081905261036052620000b690600390601862000650565b5060408051610300810182526111288152610b7060208201819052918101829052606081018290526080810182905260a0810191909152610b1e60c0820181905260e08201819052610100820181905261012082018190526101408201819052610160820181905261018082018190526101a082018190526101c082018190526101e08201819052610200820181905261022082018190526102408201819052610260820181905261028082018190526102a082018190526102c082018190526102e08201526200018c90601b90601862000650565b50604080516103008101825261089581526105b860208201819052918101829052606081018290526080810182905260a081019190915261058f60c0820181905260e08201819052610100820181905261012082018190526101408201819052610160820181905261018082018190526101a082018190526101c082018190526101e08201819052610200820181905261022082018190526102408201819052610260820181905261028082018190526102a082018190526102c082018190526102e08201526200026290603390601862000650565b5060408051610300810182526101b7815261012560208201819052918101829052606081018290526080810182905260a081019190915261011d60c0820181905260e08201819052610100820181905261012082018190526101408201819052610160820181905261018082018190526101a082018190526101c082018190526101e08201819052610200820181905261022082018190526102408201819052610260820181905261028082018190526102a082018190526102c082018190526102e08201526200033890604b90601862000650565b50604080516103008101825260758152604e60208201819052918101829052606081018290526080810182905260a0810191909152604c60c0820181905260e08201819052610100820181905261012082018190526101408201819052610160820181905261018082018190526101a082018190526101c082018190526101e08201819052610200820181905261022082018190526102408201819052610260820181905261028082018190526102a082018190526102c082018190526102e08201526200040b90606390601862000699565b50604080516103008101825269010f0cf064dd592000008152686c7974123f64a4000060208201819052918101829052606081018290526080810182905260a081019190915268698c0d885a158c000060c08201526869626b643f1f60000060e08201819052610100820181905261012082018190526101408201819052610160820181905261018082018190526101a082018190526101c082018190526101e08201819052610200820181905261022082018190526102408201819052610260820181905261028082018190526102a082018190526102c082018190526102e0820152620004ff90607b906018620006cf565b506040805161030081018252674563918244f4000081526729a2241af62c000060208201819052918101829052606081018290526080810182905260a0810182905260c0810182905260e08101829052610100810182905261012081018290526101408101829052610160810182905261018081018290526101a081018290526101c081018290526101e08101829052610200810182905261022081018290526102408101829052610260810182905261028081018290526102a081018290526102c081018290526102e0810191909152620005e09060939060186200070b565b50348015620005ee57600080fd5b50620005fa3362000600565b6200075e565b600080546001600160a01b038381166001600160a01b0319831681178455604051919092169283917f8be0079c531659141344cd1fd0a4f28419497f9722a3daafe3b4186f6b6457e09190a35050565b826018810192821562000687579160200282015b8281111562000687578251829061ffff1690559160200191906001019062000664565b506200069592915062000747565b5090565b826018810192821562000687579160200282015b8281111562000687578251829060ff16905591602001919060010190620006ad565b826018810192821562000687579160200282015b828111156200068757825182906001600160501b0316905591602001919060010190620006e3565b826018810192821562000687579160200282015b828111156200068757825182906001600160401b03169055916020019190600101906200071f565b5b8082111562000695576000815560010162000748565b61182a806200076e6000396000f3fe6080604052600436106101b05760003560e01c806374f04565116100ec578063b4b4e1611161008a578063e4b747f311610064578063e4b747f3146104a7578063ed1375d5146104cf578063f2fde38b146104ef578063fe029b801461050f57600080fd5b8063b4b4e1611461045c578063b6d31be814610472578063db2e21bc1461049257600080fd5b80638a650841116100c65780638a650841146103da5780638da5cb5b146103fa57806392fd6e99146104255780639d1cc7001461043c57600080fd5b806374f045651461034d578063796ca2731461039a5780637dce07f5146103ba57600080fd5b80634491a84b116101595780634da5045f116101335780634da5045f146102d85780635cbce351146102f8578063689a46dd14610318578063715018a61461033857600080fd5b80634491a84b14610282578063459f3e42146102a25780634c31fe8d146102c257600080fd5b80631657498e1161018a5780631657498e14610219578063268b15ed1461024957806338fe978c1461026b57600080fd5b80630555d2b3146101bc57806307625c3e146101e457806311e871881461020457600080fd5b366101b757005b600080fd5b3480156101c857600080fd5b506101d161052f565b6040519081526020015b60405180910390f35b3480156101f057600080fd5b506101d16101ff366004611582565b6105f3565b34801561021057600080fd5b506101d161060a565b34801561022557600080fd5b506102396102343660046115d5565b61063b565b60405190151581526020016101db565b34801561025557600080fd5b5061026961026436600461159a565b610674565b005b34801561027757600080fd5b506101d162093a8081565b34801561028e57600080fd5b506101d161029d366004611582565b610bfb565b3480156102ae57600080fd5b506101d16102bd366004611582565b610c0b565b3480156102ce57600080fd5b506101d160015481565b3480156102e457600080fd5b506102696102f33660046114c8565b610c1b565b34801561030457600080fd5b50610269610313366004611582565b610ce4565b34801561032457600080fd5b506101d1610333366004611582565b610cf1565b34801561034457600080fd5b50610269610d01565b34801561035957600080fd5b506103757321a3b31d37dc590380fcdba471dd0293c701901881565b60405173ffffffffffffffffffffffffffffffffffffffff90911681526020016101db565b3480156103a657600080fd5b506102396103b53660046115d5565b610d15565b3480156103c657600080fd5b506102696103d5366004611582565b610d31565b3480156103e657600080fd5b506101d16103f5366004611582565b610d3e565b34801561040657600080fd5b5060005473ffffffffffffffffffffffffffffffffffffffff16610375565b34801561043157600080fd5b506101d162278d0081565b34801561044857600080fd5b506101d1610457366004611582565b610dda565b34801561046857600080fd5b506101d160025481565b34801561047e57600080fd5b506101d161048d366004611582565b610dea565b34801561049e57600080fd5b50610269610dfa565b3480156104b357600080fd5b5061037573d093c461986240b9930cff53f42db39999768b7c81565b3480156104db57600080fd5b506101d16104ea366004611582565b610ecb565b3480156104fb57600080fd5b5061026961050a366004611490565b610eee565b34801561051b57600080fd5b506101d161052a366004611582565b610fa2565b600060015442116105a1576040517f08c379a000000000000000000000000000000000000000000000000000000000815260206004820152601b60248201527f46697273742065706f6368206e6f74207374617274656420796574000000000060448201526064015b60405180910390fd5b6002544210156105cc5762093a80600154426105bd9190611756565b6105c79190611736565b905090565b62278d00600254426105de9190611756565b6105e89190611736565b6105c790600461171e565b6063816018811061060357600080fd5b0154905081565b6000607b61061661052f565b6018811061063457634e487b7160e01b600052603260045260246000fd5b0154905090565b60ac602052816000526040600020816018811061065757600080fd5b602081049091015460ff601f9092166101000a9004169150829050565b80516020820120829082908083146106e8576040517f08c379a000000000000000000000000000000000000000000000000000000000815260206004820152601660248201527f4e616d6520646f6573206e6f74206d61746368206964000000000000000000006044820152606401610598565b333214610751576040517f08c379a000000000000000000000000000000000000000000000000000000000815260206004820152601060248201527f4f6e6c7920454f4120616c6c6f776564000000000000000000000000000000006044820152606401610598565b6040517f6352211e0000000000000000000000000000000000000000000000000000000081526004810186905233907321a3b31d37dc590380fcdba471dd0293c701901890636352211e9060240160206040518083038186803b1580156107b757600080fd5b505afa1580156107cb573d6000803e3d6000fd5b505050506040513d601f19601f820116820180604052508101906107ef91906114ac565b73ffffffffffffffffffffffffffffffffffffffff161461086c576040517f08c379a000000000000000000000000000000000000000000000000000000000815260206004820152601560248201527f596f7520617265206e6f7420746865206f776e657200000000000000000000006044820152606401610598565b600061087661052f565b90506000607b826018811061089b57634e487b7160e01b600052603260045260246000fd5b0154600088815260ab6020526040902090915082601881106108cd57634e487b7160e01b600052603260045260246000fd5b602081049091015460ff601f9092166101000a9004161561094a576040517f08c379a000000000000000000000000000000000000000000000000000000000815260206004820152600f60248201527f416c726561647920636c61696d656400000000000000000000000000000000006044820152606401610598565b6093826018811061096b57634e487b7160e01b600052603260045260246000fd5b01548110156109d6576040517f08c379a000000000000000000000000000000000000000000000000000000000815260206004820152600f60248201527f4e6f2072657761726473206c65667400000000000000000000000000000000006044820152606401610598565b6000806109e1610fb2565b905060006109f16103f58a61106a565b9050612d3b610a00828461171e565b10610a7b5760938560188110610a2657634e487b7160e01b600052603260045260246000fd5b015460008b815260ac602052604090209093506001908660188110610a5b57634e487b7160e01b600052603260045260246000fd5b602091828204019190066101000a81548160ff0219169083151502179055505b60008a815260ab602052604090206001908660188110610aab57634e487b7160e01b600052603260045260246000fd5b602091828204019190066101000a81548160ff0219169083151502179055508284610ad69190611756565b607b8660188110610af757634e487b7160e01b600052603260045260246000fd5b0155604051600090339085908381818185875af1925050503d8060008114610b3b576040519150601f19603f3d011682016040523d82523d6000602084013e610b40565b606091505b505090507fab2a9ddf76e0a58261ea58d2453b8f3e9ff015214b02b653386597b724308bb2338c8c86868b8a604051610b7f97969594939291906115f6565b60405180910390a180610bee576040517f08c379a000000000000000000000000000000000000000000000000000000000815260206004820152601560248201527f436c61696d2070726f63657373206661696c65642e00000000000000000000006044820152606401610598565b5050505050505050505050565b604b816018811061060357600080fd5b607b816018811061060357600080fd5b60005b8251811015610cdf57600081815260ab60205260409020610c3d61052f565b60188110610c5b57634e487b7160e01b600052603260045260246000fd5b602081049091015460ff601f9092166101000a900416610ccd57610ccd838281518110610c9857634e487b7160e01b600052603260045260246000fd5b6020026020010151838381518110610cc057634e487b7160e01b600052603260045260246000fd5b6020026020010151610674565b80610cd78161176d565b915050610c1e565b505050565b610cec61127f565b600155565b6093816018811061060357600080fd5b610d0961127f565b610d136000611300565b565b60ab602052816000526040600020816018811061065757600080fd5b610d3961127f565b600255565b60008160021415610d79576003610d5361052f565b60188110610d7157634e487b7160e01b600052603260045260246000fd5b015492915050565b8160031415610d8c57601b610d5361052f565b8160041415610d9f576033610d5361052f565b60058210158015610db1575060078211155b15610dc057604b610d5361052f565b60088210610dd2576063610d5361052f565b506000919050565b601b816018811061060357600080fd5b6003816018811061060357600080fd5b610e0261127f565b60405160009073d093c461986240b9930cff53f42db39999768b7c9047908381818185875af1925050503d8060008114610e58576040519150601f19603f3d011682016040523d82523d6000602084013e610e5d565b606091505b5050905080610ec8576040517f08c379a000000000000000000000000000000000000000000000000000000000815260206004820152601060248201527f5472616e73666572206661696c65642e000000000000000000000000000000006044820152606401610598565b50565b6000607b8260188110610d7157634e487b7160e01b600052603260045260246000fd5b610ef661127f565b73ffffffffffffffffffffffffffffffffffffffff8116610f99576040517f08c379a000000000000000000000000000000000000000000000000000000000815260206004820152602660248201527f4f776e61626c653a206e6577206f776e657220697320746865207a65726f206160448201527f64647265737300000000000000000000000000000000000000000000000000006064820152608401610598565b610ec881611300565b6033816018811061060357600080fd5b60008044423360405160200161100093929190928352602083019190915260601b7fffffffffffffffffffffffffffffffffffffffff00000000000000000000000016604082015260540190565b604080517fffffffffffffffffffffffffffffffffffffffffffffffffffffffffffffffe08184030181529190528051602090910120905060006110637e05a8e89d75252446eb5d5d5b1cc5edf20a1a059e10ca00000000000000000083611736565b9392505050565b8051600090819081905b8082101561127657600085838151811061109e57634e487b7160e01b600052603260045260246000fd5b01602001517fff000000000000000000000000000000000000000000000000000000000000001690507f8000000000000000000000000000000000000000000000000000000000000000811015611101576110fa60018461171e565b9250611263565b7fe0000000000000000000000000000000000000000000000000000000000000007fff0000000000000000000000000000000000000000000000000000000000000082161015611156576110fa60028461171e565b7ff0000000000000000000000000000000000000000000000000000000000000007fff00000000000000000000000000000000000000000000000000000000000000821610156111ab576110fa60038461171e565b7ff8000000000000000000000000000000000000000000000000000000000000007fff0000000000000000000000000000000000000000000000000000000000000082161015611200576110fa60048461171e565b7ffc000000000000000000000000000000000000000000000000000000000000007fff0000000000000000000000000000000000000000000000000000000000000082161015611255576110fa60058461171e565b61126060068461171e565b92505b508261126e8161176d565b935050611074565b50909392505050565b60005473ffffffffffffffffffffffffffffffffffffffff163314610d13576040517f08c379a000000000000000000000000000000000000000000000000000000000815260206004820181905260248201527f4f776e61626c653a2063616c6c6572206973206e6f7420746865206f776e65726044820152606401610598565b6000805473ffffffffffffffffffffffffffffffffffffffff8381167fffffffffffffffffffffffff0000000000000000000000000000000000000000831681178455604051919092169283917f8be0079c531659141344cd1fd0a4f28419497f9722a3daafe3b4186f6b6457e09190a35050565b600082601f830112611385578081fd5b8135602061139a611395836116fa565b6116ab565b80838252828201915082860187848660051b89010111156113b9578586fd5b855b858110156113fa57813567ffffffffffffffff8111156113d9578788fd5b6113e78a87838c0101611407565b85525092840192908401906001016113bb565b5090979650505050505050565b600082601f830112611417578081fd5b813567ffffffffffffffff811115611431576114316117bc565b61146260207fffffffffffffffffffffffffffffffffffffffffffffffffffffffffffffffe0601f840116016116ab565b818152846020838601011115611476578283fd5b816020850160208301379081016020019190915292915050565b6000602082840312156114a1578081fd5b8135611063816117d2565b6000602082840312156114bd578081fd5b8151611063816117d2565b600080604083850312156114da578081fd5b823567ffffffffffffffff808211156114f1578283fd5b818501915085601f830112611504578283fd5b81356020611514611395836116fa565b8083825282820191508286018a848660051b8901011115611533578788fd5b8796505b84871015611555578035835260019690960195918301918301611537565b509650508601359250508082111561156b578283fd5b5061157885828601611375565b9150509250929050565b600060208284031215611593578081fd5b5035919050565b600080604083850312156115ac578182fd5b82359150602083013567ffffffffffffffff8111156115c9578182fd5b61157885828601611407565b600080604083850312156115e7578182fd5b50508035926020909101359150565b73ffffffffffffffffffffffffffffffffffffffff8816815260006020888184015260e0604084015287518060e0850152825b818110156116465789810183015185820161010001528201611629565b81811115611658578361010083870101525b5060608401979097525050608081019390935260a083019190915260c0820152610100601f9092017fffffffffffffffffffffffffffffffffffffffffffffffffffffffffffffffe01601019392505050565b604051601f82017fffffffffffffffffffffffffffffffffffffffffffffffffffffffffffffffe016810167ffffffffffffffff811182821017156116f2576116f26117bc565b604052919050565b600067ffffffffffffffff821115611714576117146117bc565b5060051b60200190565b60008219821115611731576117316117a6565b500190565b60008261175157634e487b7160e01b81526012600452602481fd5b500490565b600082821015611768576117686117a6565b500390565b60007fffffffffffffffffffffffffffffffffffffffffffffffffffffffffffffffff82141561179f5761179f6117a6565b5060010190565b634e487b7160e01b600052601160045260246000fd5b634e487b7160e01b600052604160045260246000fd5b73ffffffffffffffffffffffffffffffffffffffff81168114610ec857600080fdfea2646970667358221220e65dc3e6080081a73af1c100a1b0188456e70f8e0e9e3eaadead1ac65d77795c64736f6c63430008040033",
  "linkReferences": {},
  "deployedLinkReferences": {}
}