{
  "_format": "hh-sol-artifact-1",
  "contractName": "AceDomainsAirdrop",
  "sourceName": "contracts/fusionist/AceDomainsAirdrop.sol",
  "abi": [
    {
      "inputs": [],
      "stateMutability": "nonpayable",
      "type": "constructor"
    },
    {
      "anonymous": false,
      "inputs": [
        {
          "indexed": true,
          "internalType": "address",
          "name": "previousOwner",
          "type": "address"
        },
        {
          "indexed": true,
          "internalType": "address",
          "name": "newOwner",
          "type": "address"
        }
      ],
      "name": "OwnershipTransferred",
      "type": "event"
    },
    {
      "anonymous": false,
      "inputs": [
        {
          "indexed": false,
          "internalType": "address",
          "name": "user",
          "type": "address"
        },
        {
          "indexed": false,
          "internalType": "uint256",
          "name": "id",
          "type": "uint256"
        },
        {
          "indexed": false,
          "internalType": "string",
          "name": "name",
          "type": "string"
        },
        {
          "indexed": false,
          "internalType": "uint256",
          "name": "random",
          "type": "uint256"
        },
        {
          "indexed": false,
          "internalType": "uint256",
          "name": "successRate",
          "type": "uint256"
        },
        {
          "indexed": false,
          "internalType": "uint256",
          "name": "epoch",
          "type": "uint256"
        },
        {
          "indexed": false,
          "internalType": "uint256",
          "name": "withdrawAmount",
          "type": "uint256"
        }
      ],
      "name": "airdropClaim",
      "type": "event"
    },
    {
      "inputs": [],
      "name": "baseRegistrar",
      "outputs": [
        {
          "internalType": "address",
          "name": "",
          "type": "address"
        }
      ],
      "stateMutability": "view",
      "type": "function"
    },
    {
      "inputs": [],
      "name": "calculateEpoch",
      "outputs": [
        {
          "internalType": "uint256",
          "name": "",
          "type": "uint256"
        }
      ],
      "stateMutability": "view",
      "type": "function"
    },
    {
      "inputs": [
        {
          "internalType": "uint256",
          "name": "id",
          "type": "uint256"
        },
        {
          "internalType": "string",
          "name": "name",
          "type": "string"
        }
      ],
      "name": "claim",
      "outputs": [],
      "stateMutability": "nonpayable",
      "type": "function"
    },
    {
      "inputs": [
        {
          "internalType": "uint256[]",
          "name": "idArray",
          "type": "uint256[]"
        },
        {
          "internalType": "string[]",
          "name": "nameArray",
          "type": "string[]"
        }
      ],
      "name": "claimAll",
      "outputs": [],
      "stateMutability": "nonpayable",
      "type": "function"
    },
    {
      "inputs": [
        {
          "internalType": "uint256",
          "name": "",
          "type": "uint256"
        },
        {
          "internalType": "uint256",
          "name": "",
          "type": "uint256"
        }
      ],
      "name": "claimHistory",
      "outputs": [
        {
          "internalType": "bool",
          "name": "",
          "type": "bool"
        }
      ],
      "stateMutability": "view",
      "type": "function"
    },
    {
      "inputs": [],
      "name": "emergencyWithdraw",
      "outputs": [],
      "stateMutability": "nonpayable",
      "type": "function"
    },
    {
      "inputs": [
        {
          "internalType": "uint256",
          "name": "id",
          "type": "uint256"
        }
      ],
      "name": "getClaimHistory",
      "outputs": [
        {
          "internalType": "bool[24]",
          "name": "",
          "type": "bool[24]"
        }
      ],
      "stateMutability": "view",
      "type": "function"
    },
    {
      "inputs": [],
      "name": "monthlyEpoch",
      "outputs": [
        {
          "internalType": "uint256",
          "name": "",
          "type": "uint256"
        }
      ],
      "stateMutability": "view",
      "type": "function"
    },
    {
      "inputs": [],
      "name": "monthlyTimeStart",
      "outputs": [
        {
          "internalType": "uint256",
          "name": "",
          "type": "uint256"
        }
      ],
      "stateMutability": "view",
      "type": "function"
    },
    {
      "inputs": [],
      "name": "owner",
      "outputs": [
        {
          "internalType": "address",
          "name": "",
          "type": "address"
        }
      ],
      "stateMutability": "view",
      "type": "function"
    },
    {
      "inputs": [],
      "name": "renounceOwnership",
      "outputs": [],
      "stateMutability": "nonpayable",
      "type": "function"
    },
    {
      "inputs": [
        {
          "internalType": "uint256",
          "name": "",
          "type": "uint256"
        }
      ],
      "name": "rewardsAmount",
      "outputs": [
        {
          "internalType": "uint256",
          "name": "",
          "type": "uint256"
        }
      ],
      "stateMutability": "view",
      "type": "function"
    },
    {
      "inputs": [
        {
          "internalType": "uint256",
          "name": "",
          "type": "uint256"
        }
      ],
      "name": "rewardsPool",
      "outputs": [
        {
          "internalType": "uint256",
          "name": "",
          "type": "uint256"
        }
      ],
      "stateMutability": "view",
      "type": "function"
    },
    {
      "inputs": [],
      "name": "secureWallet",
      "outputs": [
        {
          "internalType": "address",
          "name": "",
          "type": "address"
        }
      ],
      "stateMutability": "view",
      "type": "function"
    },
    {
      "inputs": [
        {
          "internalType": "uint256",
          "name": "timestamp",
          "type": "uint256"
        }
      ],
      "name": "setMonthlyStartTime",
      "outputs": [],
      "stateMutability": "nonpayable",
      "type": "function"
    },
    {
      "inputs": [
        {
          "internalType": "uint256",
          "name": "timestamp",
          "type": "uint256"
        }
      ],
      "name": "setWeeklyStartTime",
      "outputs": [],
      "stateMutability": "nonpayable",
      "type": "function"
    },
    {
      "inputs": [
        {
          "internalType": "uint256",
          "name": "",
          "type": "uint256"
        }
      ],
      "name": "successRate2Chars",
      "outputs": [
        {
          "internalType": "uint256",
          "name": "",
          "type": "uint256"
        }
      ],
      "stateMutability": "view",
      "type": "function"
    },
    {
      "inputs": [
        {
          "internalType": "uint256",
          "name": "",
          "type": "uint256"
        }
      ],
      "name": "successRate3Chars",
      "outputs": [
        {
          "internalType": "uint256",
          "name": "",
          "type": "uint256"
        }
      ],
      "stateMutability": "view",
      "type": "function"
    },
    {
      "inputs": [
        {
          "internalType": "uint256",
          "name": "",
          "type": "uint256"
        }
      ],
      "name": "successRate4Chars",
      "outputs": [
        {
          "internalType": "uint256",
          "name": "",
          "type": "uint256"
        }
      ],
      "stateMutability": "view",
      "type": "function"
    },
    {
      "inputs": [
        {
          "internalType": "uint256",
          "name": "",
          "type": "uint256"
        }
      ],
      "name": "successRate5Chars",
      "outputs": [
        {
          "internalType": "uint256",
          "name": "",
          "type": "uint256"
        }
      ],
      "stateMutability": "view",
      "type": "function"
    },
    {
      "inputs": [
        {
          "internalType": "uint256",
          "name": "",
          "type": "uint256"
        }
      ],
      "name": "successRate8Chars",
      "outputs": [
        {
          "internalType": "uint256",
          "name": "",
          "type": "uint256"
        }
      ],
      "stateMutability": "view",
      "type": "function"
    },
    {
      "inputs": [
        {
          "internalType": "address",
          "name": "newOwner",
          "type": "address"
        }
      ],
      "name": "transferOwnership",
      "outputs": [],
      "stateMutability": "nonpayable",
      "type": "function"
    },
    {
      "inputs": [],
      "name": "weeklyEpoch",
      "outputs": [
        {
          "internalType": "uint256",
          "name": "",
          "type": "uint256"
        }
      ],
      "stateMutability": "view",
      "type": "function"
    },
    {
      "inputs": [],
      "name": "weeklyTimeStart",
      "outputs": [
        {
          "internalType": "uint256",
          "name": "",
          "type": "uint256"
        }
      ],
      "stateMutability": "view",
      "type": "function"
    },
    {
      "stateMutability": "payable",
      "type": "receive"
    }
  ],
  "bytecode": "0x6364b1e1806001556364d6cb80600255610380604052612d3b608090815261262060a081905260c081905260e0819052610100819052610120526125116101408190526101608190526101808190526101a08190526101c08190526101e08190526102008190526102208190526102408190526102608190526102808190526102a08190526102c08190526102e081905261030081905261032081905261034081905261036052620000b690600390601862000650565b5060408051610300810182526111288152610b7060208201819052918101829052606081018290526080810182905260a0810191909152610b1e60c0820181905260e08201819052610100820181905261012082018190526101408201819052610160820181905261018082018190526101a082018190526101c082018190526101e08201819052610200820181905261022082018190526102408201819052610260820181905261028082018190526102a082018190526102c082018190526102e08201526200018c90601b90601862000650565b50604080516103008101825261089581526105b860208201819052918101829052606081018290526080810182905260a081019190915261058f60c0820181905260e08201819052610100820181905261012082018190526101408201819052610160820181905261018082018190526101a082018190526101c082018190526101e08201819052610200820181905261022082018190526102408201819052610260820181905261028082018190526102a082018190526102c082018190526102e08201526200026290603390601862000650565b5060408051610300810182526101b7815261012560208201819052918101829052606081018290526080810182905260a081019190915261011d60c0820181905260e08201819052610100820181905261012082018190526101408201819052610160820181905261018082018190526101a082018190526101c082018190526101e08201819052610200820181905261022082018190526102408201819052610260820181905261028082018190526102a082018190526102c082018190526102e08201526200033890604b90601862000650565b50604080516103008101825260758152604e60208201819052918101829052606081018290526080810182905260a0810191909152604c60c0820181905260e08201819052610100820181905261012082018190526101408201819052610160820181905261018082018190526101a082018190526101c082018190526101e08201819052610200820181905261022082018190526102408201819052610260820181905261028082018190526102a082018190526102c082018190526102e08201526200040b90606390601862000699565b50604080516103008101825269010f0cf064dd592000008152686c7974123f64a4000060208201819052918101829052606081018290526080810182905260a081019190915268698c0d885a158c000060c08201526869626b643f1f60000060e08201819052610100820181905261012082018190526101408201819052610160820181905261018082018190526101a082018190526101c082018190526101e08201819052610200820181905261022082018190526102408201819052610260820181905261028082018190526102a082018190526102c082018190526102e0820152620004ff90607b906018620006cf565b506040805161030081018252674563918244f4000081526729a2241af62c000060208201819052918101829052606081018290526080810182905260a0810182905260c0810182905260e08101829052610100810182905261012081018290526101408101829052610160810182905261018081018290526101a081018290526101c081018290526101e08101829052610200810182905261022081018290526102408101829052610260810182905261028081018290526102a081018290526102c081018290526102e0810191909152620005e09060939060186200070b565b50348015620005ee57600080fd5b50620005fa3362000600565b6200075e565b600080546001600160a01b038381166001600160a01b0319831681178455604051919092169283917f8be0079c531659141344cd1fd0a4f28419497f9722a3daafe3b4186f6b6457e09190a35050565b826018810192821562000687579160200282015b8281111562000687578251829061ffff1690559160200191906001019062000664565b506200069592915062000747565b5090565b826018810192821562000687579160200282015b8281111562000687578251829060ff16905591602001919060010190620006ad565b826018810192821562000687579160200282015b828111156200068757825182906001600160501b0316905591602001919060010190620006e3565b826018810192821562000687579160200282015b828111156200068757825182906001600160401b03169055916020019190600101906200071f565b5b8082111562000695576000815560010162000748565b6117a3806200076e6000396000f3fe60806040526004361061018f5760003560e01c8063796ca273116100d6578063b6d31be81161007f578063e4b747f311610059578063e4b747f31461045e578063f2fde38b14610486578063fe029b80146104a657600080fd5b8063b6d31be8146103fc578063d3b8cfe01461041c578063db2e21bc1461044957600080fd5b806392fd6e99116100b057806392fd6e99146103af5780639d1cc700146103c6578063b4b4e161146103e657600080fd5b8063796ca273146103345780637dce07f5146103645780638da5cb5b1461038457600080fd5b80634c31fe8d11610138578063689a46dd11610112578063689a46dd146102b2578063715018a6146102d257806374f04565146102e757600080fd5b80634c31fe8d1461025c5780634da5045f146102725780635cbce3511461029257600080fd5b806338fe978c1161016957806338fe978c146102055780634491a84b1461021c578063459f3e421461023c57600080fd5b80630555d2b31461019b57806307625c3e146101c3578063268b15ed146101e357600080fd5b3661019657005b600080fd5b3480156101a757600080fd5b506101b06104c6565b6040519081526020015b60405180910390f35b3480156101cf57600080fd5b506101b06101de3660046114c7565b61058a565b3480156101ef57600080fd5b506102036101fe3660046114df565b6105a1565b005b34801561021157600080fd5b506101b062093a8081565b34801561022857600080fd5b506101b06102373660046114c7565b610ac0565b34801561024857600080fd5b506101b06102573660046114c7565b610ad0565b34801561026857600080fd5b506101b060015481565b34801561027e57600080fd5b5061020361028d36600461140d565b610ae0565b34801561029e57600080fd5b506102036102ad3660046114c7565b610ba9565b3480156102be57600080fd5b506101b06102cd3660046114c7565b610bb6565b3480156102de57600080fd5b50610203610bc6565b3480156102f357600080fd5b5061030f7321a3b31d37dc590380fcdba471dd0293c701901881565b60405173ffffffffffffffffffffffffffffffffffffffff90911681526020016101ba565b34801561034057600080fd5b5061035461034f36600461151a565b610bda565b60405190151581526020016101ba565b34801561037057600080fd5b5061020361037f3660046114c7565b610c13565b34801561039057600080fd5b5060005473ffffffffffffffffffffffffffffffffffffffff1661030f565b3480156103bb57600080fd5b506101b062278d0081565b3480156103d257600080fd5b506101b06103e13660046114c7565b610c20565b3480156103f257600080fd5b506101b060025481565b34801561040857600080fd5b506101b06104173660046114c7565b610c30565b34801561042857600080fd5b5061043c6104373660046114c7565b610c40565b6040516101ba91906115f0565b34801561045557600080fd5b50610203610ca7565b34801561046a57600080fd5b5061030f73d093c461986240b9930cff53f42db39999768b7c81565b34801561049257600080fd5b506102036104a13660046113d5565b610d78565b3480156104b257600080fd5b506101b06104c13660046114c7565b610e2c565b60006001544211610538576040517f08c379a000000000000000000000000000000000000000000000000000000000815260206004820152601b60248201527f46697273742065706f6368206e6f74207374617274656420796574000000000060448201526064015b60405180910390fd5b6002544210156105635762093a806001544261055491906116cf565b61055e91906116af565b905090565b62278d006002544261057591906116cf565b61057f91906116af565b61055e906004611697565b6063816018811061059a57600080fd5b0154905081565b8051602082012082908290808314610615576040517f08c379a000000000000000000000000000000000000000000000000000000000815260206004820152601660248201527f4e616d6520646f6573206e6f74206d6174636820696400000000000000000000604482015260640161052f565b33321461067e576040517f08c379a000000000000000000000000000000000000000000000000000000000815260206004820152601060248201527f4f6e6c7920454f4120616c6c6f77656400000000000000000000000000000000604482015260640161052f565b6040517f6352211e0000000000000000000000000000000000000000000000000000000081526004810186905233907321a3b31d37dc590380fcdba471dd0293c701901890636352211e9060240160206040518083038186803b1580156106e457600080fd5b505afa1580156106f8573d6000803e3d6000fd5b505050506040513d601f19601f8201168201806040525081019061071c91906113f1565b73ffffffffffffffffffffffffffffffffffffffff1614610799576040517f08c379a000000000000000000000000000000000000000000000000000000000815260206004820152601560248201527f596f7520617265206e6f7420746865206f776e65720000000000000000000000604482015260640161052f565b60006107a36104c6565b600087815260ab6020526040902090915081601881106107d357634e487b7160e01b600052603260045260246000fd5b602081049091015460ff601f9092166101000a90041615610850576040517f08c379a000000000000000000000000000000000000000000000000000000000815260206004820152600f60248201527f416c726561647920636c61696d65640000000000000000000000000000000000604482015260640161052f565b6093816018811061087157634e487b7160e01b600052603260045260246000fd5b0154607b826018811061089457634e487b7160e01b600052603260045260246000fd5b015410156108fe576040517f08c379a000000000000000000000000000000000000000000000000000000000815260206004820152600f60248201527f4e6f2072657761726473206c6566740000000000000000000000000000000000604482015260640161052f565b600080610909610e3c565b9050600061091e61091989610ef4565b611109565b9050612d3b61092d8284611697565b10610958576093846018811061095357634e487b7160e01b600052603260045260246000fd5b015492505b600089815260ab60205260409020600190856018811061098857634e487b7160e01b600052603260045260246000fd5b602091828204019190066101000a81548160ff02191690831515021790555060003373ffffffffffffffffffffffffffffffffffffffff168460405160006040518083038185875af1925050503d8060008114610a01576040519150601f19603f3d011682016040523d82523d6000602084013e610a06565b606091505b505090507fab2a9ddf76e0a58261ea58d2453b8f3e9ff015214b02b653386597b724308bb2338b8b86868a8a604051610a45979695949392919061153b565b60405180910390a180610ab4576040517f08c379a000000000000000000000000000000000000000000000000000000000815260206004820152601560248201527f436c61696d2070726f63657373206661696c65642e0000000000000000000000604482015260640161052f565b50505050505050505050565b604b816018811061059a57600080fd5b607b816018811061059a57600080fd5b60005b8251811015610ba457600081815260ab60205260409020610b026104c6565b60188110610b2057634e487b7160e01b600052603260045260246000fd5b602081049091015460ff601f9092166101000a900416610b9257610b92838281518110610b5d57634e487b7160e01b600052603260045260246000fd5b6020026020010151838381518110610b8557634e487b7160e01b600052603260045260246000fd5b60200260200101516105a1565b80610b9c816116e6565b915050610ae3565b505050565b610bb16111a5565b600155565b6093816018811061059a57600080fd5b610bce6111a5565b610bd86000611226565b565b60ab6020528160005260406000208160188110610bf657600080fd5b602081049091015460ff601f9092166101000a9004169150829050565b610c1b6111a5565b600255565b601b816018811061059a57600080fd5b6003816018811061059a57600080fd5b610c4861129b565b600082815260ab602052604080822081516103008101928390529290916018918390855b825461010083900a900460ff161515815260206001928301818104948501949093039092029101808411610c6c575094979650505050505050565b610caf6111a5565b60405160009073d093c461986240b9930cff53f42db39999768b7c9047908381818185875af1925050503d8060008114610d05576040519150601f19603f3d011682016040523d82523d6000602084013e610d0a565b606091505b5050905080610d75576040517f08c379a000000000000000000000000000000000000000000000000000000000815260206004820152601060248201527f5472616e73666572206661696c65642e00000000000000000000000000000000604482015260640161052f565b50565b610d806111a5565b73ffffffffffffffffffffffffffffffffffffffff8116610e23576040517f08c379a000000000000000000000000000000000000000000000000000000000815260206004820152602660248201527f4f776e61626c653a206e6577206f776e657220697320746865207a65726f206160448201527f6464726573730000000000000000000000000000000000000000000000000000606482015260840161052f565b610d7581611226565b6033816018811061059a57600080fd5b600080444233604051602001610e8a93929190928352602083019190915260601b7fffffffffffffffffffffffffffffffffffffffff00000000000000000000000016604082015260540190565b604080517fffffffffffffffffffffffffffffffffffffffffffffffffffffffffffffffe0818403018152919052805160209091012090506000610eed7e05a8e89d75252446eb5d5d5b1cc5edf20a1a059e10ca000000000000000000836116af565b9392505050565b8051600090819081905b80821015611100576000858381518110610f2857634e487b7160e01b600052603260045260246000fd5b01602001517fff000000000000000000000000000000000000000000000000000000000000001690507f8000000000000000000000000000000000000000000000000000000000000000811015610f8b57610f84600184611697565b92506110ed565b7fe0000000000000000000000000000000000000000000000000000000000000007fff0000000000000000000000000000000000000000000000000000000000000082161015610fe057610f84600284611697565b7ff0000000000000000000000000000000000000000000000000000000000000007fff000000000000000000000000000000000000000000000000000000000000008216101561103557610f84600384611697565b7ff8000000000000000000000000000000000000000000000000000000000000007fff000000000000000000000000000000000000000000000000000000000000008216101561108a57610f84600484611697565b7ffc000000000000000000000000000000000000000000000000000000000000007fff00000000000000000000000000000000000000000000000000000000000000821610156110df57610f84600584611697565b6110ea600684611697565b92505b50826110f8816116e6565b935050610efe565b50909392505050565b6000816002141561114457600361111e6104c6565b6018811061113c57634e487b7160e01b600052603260045260246000fd5b015492915050565b816003141561115757601b61111e6104c6565b816004141561116a57603361111e6104c6565b6005821015801561117c575060078211155b1561118b57604b61111e6104c6565b6008821061119d57606361111e6104c6565b506000919050565b60005473ffffffffffffffffffffffffffffffffffffffff163314610bd8576040517f08c379a000000000000000000000000000000000000000000000000000000000815260206004820181905260248201527f4f776e61626c653a2063616c6c6572206973206e6f7420746865206f776e6572604482015260640161052f565b6000805473ffffffffffffffffffffffffffffffffffffffff8381167fffffffffffffffffffffffff0000000000000000000000000000000000000000831681178455604051919092169283917f8be0079c531659141344cd1fd0a4f28419497f9722a3daafe3b4186f6b6457e09190a35050565b6040518061030001604052806018906020820280368337509192915050565b600082601f8301126112ca578081fd5b813560206112df6112da83611673565b611624565b80838252828201915082860187848660051b89010111156112fe578586fd5b855b8581101561133f57813567ffffffffffffffff81111561131e578788fd5b61132c8a87838c010161134c565b8552509284019290840190600101611300565b5090979650505050505050565b600082601f83011261135c578081fd5b813567ffffffffffffffff81111561137657611376611735565b6113a760207fffffffffffffffffffffffffffffffffffffffffffffffffffffffffffffffe0601f84011601611624565b8181528460208386010111156113bb578283fd5b816020850160208301379081016020019190915292915050565b6000602082840312156113e6578081fd5b8135610eed8161174b565b600060208284031215611402578081fd5b8151610eed8161174b565b6000806040838503121561141f578081fd5b823567ffffffffffffffff80821115611436578283fd5b818501915085601f830112611449578283fd5b813560206114596112da83611673565b8083825282820191508286018a848660051b8901011115611478578788fd5b8796505b8487101561149a57803583526001969096019591830191830161147c565b50965050860135925050808211156114b0578283fd5b506114bd858286016112ba565b9150509250929050565b6000602082840312156114d8578081fd5b5035919050565b600080604083850312156114f1578182fd5b82359150602083013567ffffffffffffffff81111561150e578182fd5b6114bd8582860161134c565b6000806040838503121561152c578182fd5b50508035926020909101359150565b73ffffffffffffffffffffffffffffffffffffffff8816815260006020888184015260e0604084015287518060e0850152825b8181101561158b578981018301518582016101000152820161156e565b8181111561159d578361010083870101525b5060608401979097525050608081019390935260a083019190915260c0820152610100601f9092017fffffffffffffffffffffffffffffffffffffffffffffffffffffffffffffffe01601019392505050565b6103008101818360005b601881101561161b57815115158352602092830192909101906001016115fa565b50505092915050565b604051601f82017fffffffffffffffffffffffffffffffffffffffffffffffffffffffffffffffe016810167ffffffffffffffff8111828210171561166b5761166b611735565b604052919050565b600067ffffffffffffffff82111561168d5761168d611735565b5060051b60200190565b600082198211156116aa576116aa61171f565b500190565b6000826116ca57634e487b7160e01b81526012600452602481fd5b500490565b6000828210156116e1576116e161171f565b500390565b60007fffffffffffffffffffffffffffffffffffffffffffffffffffffffffffffffff8214156117185761171861171f565b5060010190565b634e487b7160e01b600052601160045260246000fd5b634e487b7160e01b600052604160045260246000fd5b73ffffffffffffffffffffffffffffffffffffffff81168114610d7557600080fdfea26469706673582212209521d4ca6ee1c6b3eeab9f8f1a3ff269915343ecc304f23e65f085812a4ded8e64736f6c63430008040033",
  "linkReferences": {},
  "deployedLinkReferences": {}
}