{
    "_format": "hh-sol-artifact-1",
    "contractName": "DiscountCoupons",
    "sourceName": "contracts/ethregistrar/DiscountCoupons.sol",
    "abi": [
        {
            "inputs": [
                {
                    "internalType": "address",
                    "name": "_controllerContract",
                    "type": "address"
                }
            ],
            "stateMutability": "nonpayable",
            "type": "constructor"
        },
        {
            "anonymous": false,
            "inputs": [
                {
                    "indexed": true,
                    "internalType": "address",
                    "name": "user",
                    "type": "address"
                },
                {
                    "indexed": false,
                    "internalType": "uint256",
                    "name": "length",
                    "type": "uint256"
                },
                {
                    "indexed": false,
                    "internalType": "uint256",
                    "name": "couponAmount",
                    "type": "uint256"
                }
            ],
            "name": "CouponAdded",
            "type": "event"
        },
        {
            "anonymous": false,
            "inputs": [
                {
                    "indexed": true,
                    "internalType": "address",
                    "name": "user",
                    "type": "address"
                },
                {
                    "indexed": false,
                    "internalType": "uint256[]",
                    "name": "couponAmount",
                    "type": "uint256[]"
                }
            ],
            "name": "CouponSet",
            "type": "event"
        },
        {
            "anonymous": false,
            "inputs": [
                {
                    "indexed": true,
                    "internalType": "address",
                    "name": "user",
                    "type": "address"
                },
                {
                    "indexed": false,
                    "internalType": "uint256",
                    "name": "length",
                    "type": "uint256"
                }
            ],
            "name": "CouponUsed",
            "type": "event"
        },
        {
            "anonymous": false,
            "inputs": [
                {
                    "indexed": true,
                    "internalType": "address",
                    "name": "user",
                    "type": "address"
                },
                {
                    "indexed": false,
                    "internalType": "uint256[]",
                    "name": "discount",
                    "type": "uint256[]"
                }
            ],
            "name": "CustomDiscountAdded",
            "type": "event"
        },
        {
            "anonymous": false,
            "inputs": [
                {
                    "indexed": true,
                    "internalType": "address",
                    "name": "previousOwner",
                    "type": "address"
                },
                {
                    "indexed": true,
                    "internalType": "address",
                    "name": "newOwner",
                    "type": "address"
                }
            ],
            "name": "OwnershipTransferred",
            "type": "event"
        },
        {
            "anonymous": false,
            "inputs": [
                {
                    "indexed": true,
                    "internalType": "bytes32",
                    "name": "role",
                    "type": "bytes32"
                },
                {
                    "indexed": true,
                    "internalType": "bytes32",
                    "name": "previousAdminRole",
                    "type": "bytes32"
                },
                {
                    "indexed": true,
                    "internalType": "bytes32",
                    "name": "newAdminRole",
                    "type": "bytes32"
                }
            ],
            "name": "RoleAdminChanged",
            "type": "event"
        },
        {
            "anonymous": false,
            "inputs": [
                {
                    "indexed": true,
                    "internalType": "bytes32",
                    "name": "role",
                    "type": "bytes32"
                },
                {
                    "indexed": true,
                    "internalType": "address",
                    "name": "account",
                    "type": "address"
                },
                {
                    "indexed": true,
                    "internalType": "address",
                    "name": "sender",
                    "type": "address"
                }
            ],
            "name": "RoleGranted",
            "type": "event"
        },
        {
            "anonymous": false,
            "inputs": [
                {
                    "indexed": true,
                    "internalType": "bytes32",
                    "name": "role",
                    "type": "bytes32"
                },
                {
                    "indexed": true,
                    "internalType": "address",
                    "name": "account",
                    "type": "address"
                },
                {
                    "indexed": true,
                    "internalType": "address",
                    "name": "sender",
                    "type": "address"
                }
            ],
            "name": "RoleRevoked",
            "type": "event"
        },
        {
            "inputs": [],
            "name": "DEFAULT_ADMIN_ROLE",
            "outputs": [
                {
                    "internalType": "bytes32",
                    "name": "",
                    "type": "bytes32"
                }
            ],
            "stateMutability": "view",
            "type": "function"
        },
        {
            "inputs": [],
            "name": "OPERATOR_ROLE",
            "outputs": [
                {
                    "internalType": "bytes32",
                    "name": "",
                    "type": "bytes32"
                }
            ],
            "stateMutability": "view",
            "type": "function"
        },
        {
            "inputs": [
                {
                    "internalType": "address",
                    "name": "_user",
                    "type": "address"
                },
                {
                    "internalType": "uint256",
                    "name": "_nameLength",
                    "type": "uint256"
                },
                {
                    "internalType": "uint256",
                    "name": "_amount",
                    "type": "uint256"
                }
            ],
            "name": "addCoupons",
            "outputs": [],
            "stateMutability": "nonpayable",
            "type": "function"
        },
        {
            "inputs": [
                {
                    "internalType": "address[]",
                    "name": "_user",
                    "type": "address[]"
                },
                {
                    "internalType": "uint256[]",
                    "name": "_nameLength",
                    "type": "uint256[]"
                },
                {
                    "internalType": "uint256[]",
                    "name": "_amount",
                    "type": "uint256[]"
                }
            ],
            "name": "addCouponsBulk",
            "outputs": [],
            "stateMutability": "nonpayable",
            "type": "function"
        },
        {
            "inputs": [],
            "name": "controllerContract",
            "outputs": [
                {
                    "internalType": "address",
                    "name": "",
                    "type": "address"
                }
            ],
            "stateMutability": "view",
            "type": "function"
        },
        {
            "inputs": [
                {
                    "internalType": "uint256",
                    "name": "",
                    "type": "uint256"
                }
            ],
            "name": "defaultDiscount",
            "outputs": [
                {
                    "internalType": "uint256",
                    "name": "",
                    "type": "uint256"
                }
            ],
            "stateMutability": "view",
            "type": "function"
        },
        {
            "inputs": [
                {
                    "internalType": "address",
                    "name": "_user",
                    "type": "address"
                }
            ],
            "name": "getCoupons",
            "outputs": [
                {
                    "internalType": "uint256[]",
                    "name": "",
                    "type": "uint256[]"
                }
            ],
            "stateMutability": "view",
            "type": "function"
        },
        {
            "inputs": [
                {
                    "internalType": "address",
                    "name": "_user",
                    "type": "address"
                },
                {
                    "internalType": "uint256",
                    "name": "_nameLength",
                    "type": "uint256"
                },
                {
                    "internalType": "uint256",
                    "name": "_cost",
                    "type": "uint256"
                }
            ],
            "name": "getDiscount",
            "outputs": [
                {
                    "internalType": "uint256",
                    "name": "",
                    "type": "uint256"
                }
            ],
            "stateMutability": "view",
            "type": "function"
        },
        {
            "inputs": [
                {
                    "internalType": "address",
                    "name": "_user",
                    "type": "address"
                }
            ],
            "name": "getDiscounts",
            "outputs": [
                {
                    "internalType": "uint256[]",
                    "name": "",
                    "type": "uint256[]"
                }
            ],
            "stateMutability": "view",
            "type": "function"
        },
        {
            "inputs": [
                {
                    "internalType": "bytes32",
                    "name": "role",
                    "type": "bytes32"
                }
            ],
            "name": "getRoleAdmin",
            "outputs": [
                {
                    "internalType": "bytes32",
                    "name": "",
                    "type": "bytes32"
                }
            ],
            "stateMutability": "view",
            "type": "function"
        },
        {
            "inputs": [
                {
                    "internalType": "bytes32",
                    "name": "role",
                    "type": "bytes32"
                },
                {
                    "internalType": "address",
                    "name": "account",
                    "type": "address"
                }
            ],
            "name": "grantRole",
            "outputs": [],
            "stateMutability": "nonpayable",
            "type": "function"
        },
        {
            "inputs": [
                {
                    "internalType": "bytes32",
                    "name": "role",
                    "type": "bytes32"
                },
                {
                    "internalType": "address",
                    "name": "account",
                    "type": "address"
                }
            ],
            "name": "hasRole",
            "outputs": [
                {
                    "internalType": "bool",
                    "name": "",
                    "type": "bool"
                }
            ],
            "stateMutability": "view",
            "type": "function"
        },
        {
            "inputs": [
                {
                    "internalType": "address",
                    "name": "_user",
                    "type": "address"
                }
            ],
            "name": "haveCustomDiscount",
            "outputs": [
                {
                    "internalType": "bool",
                    "name": "",
                    "type": "bool"
                }
            ],
            "stateMutability": "view",
            "type": "function"
        },
        {
            "inputs": [],
            "name": "owner",
            "outputs": [
                {
                    "internalType": "address",
                    "name": "",
                    "type": "address"
                }
            ],
            "stateMutability": "view",
            "type": "function"
        },
        {
            "inputs": [],
            "name": "renounceOwnership",
            "outputs": [],
            "stateMutability": "nonpayable",
            "type": "function"
        },
        {
            "inputs": [
                {
                    "internalType": "bytes32",
                    "name": "role",
                    "type": "bytes32"
                },
                {
                    "internalType": "address",
                    "name": "account",
                    "type": "address"
                }
            ],
            "name": "renounceRole",
            "outputs": [],
            "stateMutability": "nonpayable",
            "type": "function"
        },
        {
            "inputs": [
                {
                    "internalType": "bytes32",
                    "name": "role",
                    "type": "bytes32"
                },
                {
                    "internalType": "address",
                    "name": "account",
                    "type": "address"
                }
            ],
            "name": "revokeRole",
            "outputs": [],
            "stateMutability": "nonpayable",
            "type": "function"
        },
        {
            "inputs": [
                {
                    "internalType": "address",
                    "name": "_contract",
                    "type": "address"
                }
            ],
            "name": "setControllerContract",
            "outputs": [],
            "stateMutability": "nonpayable",
            "type": "function"
        },
        {
            "inputs": [
                {
                    "internalType": "address",
                    "name": "_user",
                    "type": "address"
                },
                {
                    "internalType": "uint256[]",
                    "name": "_available",
                    "type": "uint256[]"
                }
            ],
            "name": "setCoupons",
            "outputs": [],
            "stateMutability": "nonpayable",
            "type": "function"
        },
        {
            "inputs": [
                {
                    "internalType": "address[]",
                    "name": "_users",
                    "type": "address[]"
                },
                {
                    "internalType": "uint256[][]",
                    "name": "_available",
                    "type": "uint256[][]"
                }
            ],
            "name": "setCouponsBulk",
            "outputs": [],
            "stateMutability": "nonpayable",
            "type": "function"
        },
        {
            "inputs": [
                {
                    "internalType": "address",
                    "name": "_user",
                    "type": "address"
                },
                {
                    "internalType": "uint256[]",
                    "name": "_discount",
                    "type": "uint256[]"
                }
            ],
            "name": "setCustomDiscount",
            "outputs": [],
            "stateMutability": "nonpayable",
            "type": "function"
        },
        {
            "inputs": [
                {
                    "internalType": "bytes4",
                    "name": "interfaceId",
                    "type": "bytes4"
                }
            ],
            "name": "supportsInterface",
            "outputs": [
                {
                    "internalType": "bool",
                    "name": "",
                    "type": "bool"
                }
            ],
            "stateMutability": "view",
            "type": "function"
        },
        {
            "inputs": [
                {
                    "internalType": "address",
                    "name": "newOwner",
                    "type": "address"
                }
            ],
            "name": "transferOwnership",
            "outputs": [],
            "stateMutability": "nonpayable",
            "type": "function"
        },
        {
            "inputs": [
                {
                    "internalType": "address",
                    "name": "_user",
                    "type": "address"
                },
                {
                    "internalType": "uint256",
                    "name": "_nameLength",
                    "type": "uint256"
                }
            ],
            "name": "useCoupon",
            "outputs": [],
            "stateMutability": "nonpayable",
            "type": "function"
        }
    ],
    "bytecode": "0x6101206040526000608081815260a0829052606460c081905260e052610100919091526200003290600390600562000120565b506040805160a0810182526000808252602082018190529181018290526060810182905260808101919091526200006e90600490600562000120565b503480156200007c57600080fd5b50604051620024ff380380620024ff8339810160408190526200009f916200018c565b620000aa33620000d0565b600280546001600160a01b0319166001600160a01b0392909216919091179055620001bc565b600080546001600160a01b038381166001600160a01b0319831681178455604051919092169283917f8be0079c531659141344cd1fd0a4f28419497f9722a3daafe3b4186f6b6457e09190a35050565b82805482825590600052602060002090810192821562000163579160200282015b8281111562000163578251829060ff1690559160200191906001019062000141565b506200017192915062000175565b5090565b5b8082111562000171576000815560010162000176565b6000602082840312156200019e578081fd5b81516001600160a01b0381168114620001b5578182fd5b9392505050565b61233380620001cc6000396000f3fe608060405234801561001057600080fd5b50600436106101985760003560e01c806391d14854116100e3578063be185f711161008c578063f2fde38b11610066578063f2fde38b146103ea578063f5b541a6146103fd578063fd556bea1461042457600080fd5b8063be185f71146103b1578063cc172adc146103c4578063d547741f146103d757600080fd5b8063aacc26ba116100bd578063aacc26ba1461036b578063ab8f10681461037e578063b5a01c4e1461039157600080fd5b806391d14854146102e5578063a217fddf1461032b578063a5ed8b701461033357600080fd5b806346b3ff7d11610145578063786da2c91161011f578063786da2c9146102805780638da5cb5b146102935780638dfb5130146102d257600080fd5b806346b3ff7d1461024557806365926db014610265578063715018a61461027857600080fd5b80632f2ff15d116101765780632f2ff15d1461020c57806336568abe1461021f5780633c25c06b1461023257600080fd5b806301ffc9a71461019d578063183a49de146101c5578063248a9ca3146101da575b600080fd5b6101b06101ab366004611fe2565b610437565b60405190151581526020015b60405180910390f35b6101d86101d3366004611e17565b6104d0565b005b6101fe6101e8366004611f9f565b6000908152600160208190526040909120015490565b6040519081526020016101bc565b6101d861021a366004611fb7565b610766565b6101d861022d366004611fb7565b610791565b6101d8610240366004611dee565b61082a565b610258610253366004611d88565b610acc565b6040516101bc91906120a3565b6101d8610273366004611e49565b610bc6565b6101d8610d79565b61025861028e366004611d88565b610d8d565b60005473ffffffffffffffffffffffffffffffffffffffff165b60405173ffffffffffffffffffffffffffffffffffffffff90911681526020016101bc565b6101d86102e0366004611d88565b610e85565b6101b06102f3366004611fb7565b600091825260016020908152604080842073ffffffffffffffffffffffffffffffffffffffff93909316845291905290205460ff1690565b6101fe600081565b6101b0610341366004611d88565b73ffffffffffffffffffffffffffffffffffffffff16600090815260066020526040902054151590565b6101fe610379366004611f9f565b610ed4565b6101d861038c366004611da2565b610ef5565b6002546102ad9073ffffffffffffffffffffffffffffffffffffffff1681565b6101d86103bf366004611da2565b6110af565b6101d86103d2366004611f1b565b611269565b6101d86103e5366004611fb7565b611431565b6101d86103f8366004611d88565b611457565b6101fe7f523a704056dcd17bcf83bed8b68c59416dac1119be77755efe3bde0a64e46e0c81565b6101fe610432366004611e17565b6114f4565b60007fffffffff0000000000000000000000000000000000000000000000000000000082167f7965db0b0000000000000000000000000000000000000000000000000000000014806104ca57507f01ffc9a7000000000000000000000000000000000000000000000000000000007fffffffff000000000000000000000000000000000000000000000000000000008316145b92915050565b60005473ffffffffffffffffffffffffffffffffffffffff1633148061052457503360009081527f8ba84450219907afe912da1ddd29b6f4e773baa5c2630d42ebe0371c91fdf9ed602052604090205460ff165b61059b5760405162461bcd60e51b815260206004820152603a60248201527f4f6e6c79204f776e65722c204f70657261746f7220616e6420436f6e74726f6c60448201527f6c65722063616e2063616c6c20746869732066756e6374696f6e00000000000060648201526084015b60405180910390fd5b6000821180156105ab5750600682105b61061d5760405162461bcd60e51b815260206004820152602360248201527f4e616d65206c656e677468206d757374206265206265747765656e203120616e60448201527f64203500000000000000000000000000000000000000000000000000000000006064820152608401610592565b73ffffffffffffffffffffffffffffffffffffffff83166000908152600560205260409020546106a2576040805160a08101825260008082526020808301829052828401829052606083018290526080830182905273ffffffffffffffffffffffffffffffffffffffff871682526005908190529290206106a092909190611bec565b505b73ffffffffffffffffffffffffffffffffffffffff8316600090815260056020526040902081906106d4600185612220565b815481106106f257634e487b7160e01b600052603260045260246000fd5b90600052602060002001600082825461070b91906121ab565b9091555050604080518381526020810183905273ffffffffffffffffffffffffffffffffffffffff8516917f867bf857756ce9196b617063925c36c9420f130f186d93f1cd0cf7e6406b6126910160405180910390a2505050565b600082815260016020819052604090912001546107828161165e565b61078c8383611668565b505050565b73ffffffffffffffffffffffffffffffffffffffff8116331461081c5760405162461bcd60e51b815260206004820152602f60248201527f416363657373436f6e74726f6c3a2063616e206f6e6c792072656e6f756e636560448201527f20726f6c657320666f722073656c6600000000000000000000000000000000006064820152608401610592565b6108268282611727565b5050565b6005811115610837575060055b60025473ffffffffffffffffffffffffffffffffffffffff16331480610874575060005473ffffffffffffffffffffffffffffffffffffffff1633145b6108e65760405162461bcd60e51b815260206004820152602960248201527f4f6e6c79204f776e657220616e6420436f6e74726f6c6c65722063616e20757360448201527f6520636f75706f6e7300000000000000000000000000000000000000000000006064820152608401610592565b6000811180156108f65750600681105b6109685760405162461bcd60e51b815260206004820152602360248201527f4e616d65206c656e677468206d757374206265206265747765656e203120616e60448201527f64203500000000000000000000000000000000000000000000000000000000006064820152608401610592565b73ffffffffffffffffffffffffffffffffffffffff82166000908152600560205260408120610998600184612220565b815481106109b657634e487b7160e01b600052603260045260246000fd5b906000526020600020015411610a0e5760405162461bcd60e51b815260206004820152601460248201527f4e6f20636f75706f6e7320617661696c61626c650000000000000000000000006044820152606401610592565b73ffffffffffffffffffffffffffffffffffffffff82166000908152600560205260409020600190610a408284612220565b81548110610a5e57634e487b7160e01b600052603260045260246000fd5b906000526020600020016000828254610a779190612220565b909155505060405181815273ffffffffffffffffffffffffffffffffffffffff8316907f5915d66237d65e9a887dbb51c150a4c9005e64cfa29d123764158f825f3c0884906020015b60405180910390a25050565b73ffffffffffffffffffffffffffffffffffffffff8116600090815260056020526040902054606090610b51576004805480602002602001604051908101604052809291908181526020018280548015610b4557602002820191906000526020600020905b815481526020019060010190808311610b31575b50505050509050919050565b73ffffffffffffffffffffffffffffffffffffffff821660009081526005602090815260409182902080548351818402810184019094528084529091830182828015610b455760200282019190600052602060002090815481526020019060010190808311610b315750505050509050919050565b60005473ffffffffffffffffffffffffffffffffffffffff16331480610c1a57503360009081527f8ba84450219907afe912da1ddd29b6f4e773baa5c2630d42ebe0371c91fdf9ed602052604090205460ff165b610c8c5760405162461bcd60e51b815260206004820152603a60248201527f4f6e6c79204f776e65722c204f70657261746f7220616e6420436f6e74726f6c60448201527f6c65722063616e2063616c6c20746869732066756e6374696f6e0000000000006064820152608401610592565b8051825114610d035760405162461bcd60e51b815260206004820152603260248201527f557365727320616e6420617661696c61626c6520617272617973206d7573742060448201527f6265207468652073616d65206c656e67746800000000000000000000000000006064820152608401610592565b60005b825181101561078c57610d67838281518110610d3257634e487b7160e01b600052603260045260246000fd5b6020026020010151838381518110610d5a57634e487b7160e01b600052603260045260246000fd5b6020026020010151610ef5565b80610d7181612298565b915050610d06565b610d816117e2565b610d8b6000611849565b565b73ffffffffffffffffffffffffffffffffffffffff8116600090815260066020526040902054606090610e10576003805480602002602001604051908101604052809291908181526020018280548015610b455760200282019190600052602060002090815481526020019060010190808311610b315750505050509050919050565b73ffffffffffffffffffffffffffffffffffffffff821660009081526006602090815260409182902080548351818402810184019094528084529091830182828015610b455760200282019190600052602060002090815481526020019060010190808311610b315750505050509050919050565b610e8d6117e2565b600280547fffffffffffffffffffffffff00000000000000000000000000000000000000001673ffffffffffffffffffffffffffffffffffffffff92909216919091179055565b60038181548110610ee457600080fd5b600091825260209091200154905081565b60005473ffffffffffffffffffffffffffffffffffffffff16331480610f4957503360009081527f8ba84450219907afe912da1ddd29b6f4e773baa5c2630d42ebe0371c91fdf9ed602052604090205460ff165b610fbb5760405162461bcd60e51b815260206004820152603a60248201527f4f6e6c79204f776e65722c204f70657261746f7220616e6420436f6e74726f6c60448201527f6c65722063616e2063616c6c20746869732066756e6374696f6e0000000000006064820152608401610592565b80516005146110325760405162461bcd60e51b815260206004820152602760248201527f417661696c61626c65206172726179206d757374206265203520656c656d656e60448201527f7473206c6f6e67000000000000000000000000000000000000000000000000006064820152608401610592565b73ffffffffffffffffffffffffffffffffffffffff82166000908152600560209081526040909120825161106892840190611c3c565b508173ffffffffffffffffffffffffffffffffffffffff167fbbe09ceffb19a2455bf8c28f5cf96d6050fc4d1a103dba83b63d889746dcc83682604051610ac091906120a3565b60005473ffffffffffffffffffffffffffffffffffffffff1633148061110357503360009081527f8ba84450219907afe912da1ddd29b6f4e773baa5c2630d42ebe0371c91fdf9ed602052604090205460ff165b6111755760405162461bcd60e51b815260206004820152603a60248201527f4f6e6c79204f776e65722c204f70657261746f7220616e6420436f6e74726f6c60448201527f6c65722063616e2063616c6c20746869732066756e6374696f6e0000000000006064820152608401610592565b80516005146111ec5760405162461bcd60e51b815260206004820152602660248201527f446973636f756e74206172726179206d757374206265203520656c656d656e7460448201527f73206c6f6e6700000000000000000000000000000000000000000000000000006064820152608401610592565b73ffffffffffffffffffffffffffffffffffffffff82166000908152600660209081526040909120825161122292840190611c3c565b508173ffffffffffffffffffffffffffffffffffffffff167fce3d677ce816adec969bfe1a4f19910da7fcf5b89d145218382850fae36cc3f582604051610ac091906120a3565b60005473ffffffffffffffffffffffffffffffffffffffff163314806112bd57503360009081527f8ba84450219907afe912da1ddd29b6f4e773baa5c2630d42ebe0371c91fdf9ed602052604090205460ff165b61132f5760405162461bcd60e51b815260206004820152603a60248201527f4f6e6c79204f776e65722c204f70657261746f7220616e6420436f6e74726f6c60448201527f6c65722063616e2063616c6c20746869732066756e6374696f6e0000000000006064820152608401610592565b81518351148015611341575080518251145b61138d5760405162461bcd60e51b815260206004820152601e60248201527f417272617973206d757374206265207468652073616d65206c656e67746800006044820152606401610592565b60005b835181101561142b576114198482815181106113bc57634e487b7160e01b600052603260045260246000fd5b60200260200101518483815181106113e457634e487b7160e01b600052603260045260246000fd5b602002602001015184848151811061140c57634e487b7160e01b600052603260045260246000fd5b60200260200101516104d0565b8061142381612298565b915050611390565b50505050565b6000828152600160208190526040909120015461144d8161165e565b61078c8383611727565b61145f6117e2565b73ffffffffffffffffffffffffffffffffffffffff81166114e85760405162461bcd60e51b815260206004820152602660248201527f4f776e61626c653a206e6577206f776e657220697320746865207a65726f206160448201527f64647265737300000000000000000000000000000000000000000000000000006064820152608401610592565b6114f181611849565b50565b6000600583111561150457600592505b6000831161151157600080fd5b73ffffffffffffffffffffffffffffffffffffffff841660009081526005602052604090205461154357506000611657565b73ffffffffffffffffffffffffffffffffffffffff84166000908152600560205260408120611573600186612220565b8154811061159157634e487b7160e01b600052603260045260246000fd5b906000526020600020015411156116535773ffffffffffffffffffffffffffffffffffffffff841660009081526006602052604090205461162057606460036115db600186612220565b815481106115f957634e487b7160e01b600052603260045260246000fd5b90600052602060002001548361160f91906121e3565b61161991906121c3565b9050611657565b73ffffffffffffffffffffffffffffffffffffffff841660009081526006602052604090206064906115db600186612220565b5060005b9392505050565b6114f181336118be565b600082815260016020908152604080832073ffffffffffffffffffffffffffffffffffffffff8516845290915290205460ff1661082657600082815260016020818152604080842073ffffffffffffffffffffffffffffffffffffffff8616808652925280842080547fffffffffffffffffffffffffffffffffffffffffffffffffffffffffffffff00169093179092559051339285917f2f8788117e7eff1d82e926ec794901d17c78024a50270940304540a733656f0d9190a45050565b600082815260016020908152604080832073ffffffffffffffffffffffffffffffffffffffff8516845290915290205460ff161561082657600082815260016020908152604080832073ffffffffffffffffffffffffffffffffffffffff8516808552925280832080547fffffffffffffffffffffffffffffffffffffffffffffffffffffffffffffff0016905551339285917ff6391f5c32d9c69d2a47ea670b442974b53935d1edc7fd64eb21e047a839171b9190a45050565b60005473ffffffffffffffffffffffffffffffffffffffff163314610d8b5760405162461bcd60e51b815260206004820181905260248201527f4f776e61626c653a2063616c6c6572206973206e6f7420746865206f776e65726044820152606401610592565b6000805473ffffffffffffffffffffffffffffffffffffffff8381167fffffffffffffffffffffffff0000000000000000000000000000000000000000831681178455604051919092169283917f8be0079c531659141344cd1fd0a4f28419497f9722a3daafe3b4186f6b6457e09190a35050565b600082815260016020908152604080832073ffffffffffffffffffffffffffffffffffffffff8516845290915290205460ff16610826576118fe8161195e565b61190983602061197d565b60405160200161191a929190612022565b604080517fffffffffffffffffffffffffffffffffffffffffffffffffffffffffffffffe08184030181529082905262461bcd60e51b8252610592916004016120e7565b60606104ca73ffffffffffffffffffffffffffffffffffffffff831660145b6060600061198c8360026121e3565b6119979060026121ab565b67ffffffffffffffff8111156119bd57634e487b7160e01b600052604160045260246000fd5b6040519080825280601f01601f1916602001820160405280156119e7576020820181803683370190505b5090507f300000000000000000000000000000000000000000000000000000000000000081600081518110611a2c57634e487b7160e01b600052603260045260246000fd5b60200101907effffffffffffffffffffffffffffffffffffffffffffffffffffffffffffff1916908160001a9053507f780000000000000000000000000000000000000000000000000000000000000081600181518110611a9d57634e487b7160e01b600052603260045260246000fd5b60200101907effffffffffffffffffffffffffffffffffffffffffffffffffffffffffffff1916908160001a9053506000611ad98460026121e3565b611ae49060016121ab565b90505b6001811115611b9d577f303132333435363738396162636465660000000000000000000000000000000085600f1660108110611b3357634e487b7160e01b600052603260045260246000fd5b1a60f81b828281518110611b5757634e487b7160e01b600052603260045260246000fd5b60200101907effffffffffffffffffffffffffffffffffffffffffffffffffffffffffffff1916908160001a90535060049490941c93611b9681612263565b9050611ae7565b5083156116575760405162461bcd60e51b815260206004820181905260248201527f537472696e67733a20686578206c656e67746820696e73756666696369656e746044820152606401610592565b828054828255906000526020600020908101928215611c2c579160200282015b82811115611c2c578251829060ff16905591602001919060010190611c0c565b50611c38929150611c77565b5090565b828054828255906000526020600020908101928215611c2c579160200282015b82811115611c2c578251825591602001919060010190611c5c565b5b80821115611c385760008155600101611c78565b803573ffffffffffffffffffffffffffffffffffffffff81168114611cb057600080fd5b919050565b600082601f830112611cc5578081fd5b81356020611cda611cd583612187565b612138565b80838252828201915082860187848660051b8901011115611cf9578586fd5b855b85811015611d1e57611d0c82611c8c565b84529284019290840190600101611cfb565b5090979650505050505050565b600082601f830112611d3b578081fd5b81356020611d4b611cd583612187565b80838252828201915082860187848660051b8901011115611d6a578586fd5b855b85811015611d1e57813584529284019290840190600101611d6c565b600060208284031215611d99578081fd5b61165782611c8c565b60008060408385031215611db4578081fd5b611dbd83611c8c565b9150602083013567ffffffffffffffff811115611dd8578182fd5b611de485828601611d2b565b9150509250929050565b60008060408385031215611e00578182fd5b611e0983611c8c565b946020939093013593505050565b600080600060608486031215611e2b578081fd5b611e3484611c8c565b95602085013595506040909401359392505050565b60008060408385031215611e5b578182fd5b823567ffffffffffffffff80821115611e72578384fd5b611e7e86838701611cb5565b9350602091508185013581811115611e94578384fd5b8501601f81018713611ea4578384fd5b8035611eb2611cd582612187565b8082825285820191508584018a878560051b8701011115611ed1578788fd5b875b84811015611f0a57813587811115611ee957898afd5b611ef78d8a838a0101611d2b565b8552509287019290870190600101611ed3565b50979a909950975050505050505050565b600080600060608486031215611f2f578283fd5b833567ffffffffffffffff80821115611f46578485fd5b611f5287838801611cb5565b94506020860135915080821115611f67578384fd5b611f7387838801611d2b565b93506040860135915080821115611f88578283fd5b50611f9586828701611d2b565b9150509250925092565b600060208284031215611fb0578081fd5b5035919050565b60008060408385031215611fc9578182fd5b82359150611fd960208401611c8c565b90509250929050565b600060208284031215611ff3578081fd5b81357fffffffff0000000000000000000000000000000000000000000000000000000081168114611657578182fd5b7f416363657373436f6e74726f6c3a206163636f756e742000000000000000000081526000835161205a816017850160208801612237565b7f206973206d697373696e6720726f6c65200000000000000000000000000000006017918401918201528351612097816028840160208801612237565b01602801949350505050565b6020808252825182820181905260009190848201906040850190845b818110156120db578351835292840192918401916001016120bf565b50909695505050505050565b6020815260008251806020840152612106816040850160208701612237565b601f017fffffffffffffffffffffffffffffffffffffffffffffffffffffffffffffffe0169190910160400192915050565b604051601f82017fffffffffffffffffffffffffffffffffffffffffffffffffffffffffffffffe016810167ffffffffffffffff8111828210171561217f5761217f6122e7565b604052919050565b600067ffffffffffffffff8211156121a1576121a16122e7565b5060051b60200190565b600082198211156121be576121be6122d1565b500190565b6000826121de57634e487b7160e01b81526012600452602481fd5b500490565b6000817fffffffffffffffffffffffffffffffffffffffffffffffffffffffffffffffff048311821515161561221b5761221b6122d1565b500290565b600082821015612232576122326122d1565b500390565b60005b8381101561225257818101518382015260200161223a565b8381111561142b5750506000910152565b600081612272576122726122d1565b507fffffffffffffffffffffffffffffffffffffffffffffffffffffffffffffffff0190565b60007fffffffffffffffffffffffffffffffffffffffffffffffffffffffffffffffff8214156122ca576122ca6122d1565b5060010190565b634e487b7160e01b600052601160045260246000fd5b634e487b7160e01b600052604160045260246000fdfea2646970667358221220a28a0af3f3b262b49ad29d441dea380869910590bac00a861b0be5bdde70b25f64736f6c63430008040033",
    "linkReferences": {},
    "deployedLinkReferences": {}
}